{
  "address": "0xe7f1725E7734CE288F8367e1Bb143E90bb3F0512",
  "abi": [
    {
      "inputs": [
        {
          "internalType": "address",
          "name": "priceFeedAddress",
          "type": "address"
        }
      ],
      "stateMutability": "nonpayable",
      "type": "constructor"
    },
    {
      "stateMutability": "payable",
      "type": "fallback"
    },
    {
      "inputs": [],
      "name": "MINIMUM_USD",
      "outputs": [
        {
          "internalType": "uint256",
          "name": "",
          "type": "uint256"
        }
      ],
      "stateMutability": "view",
      "type": "function"
    },
    {
      "inputs": [
        {
          "internalType": "address",
          "name": "",
          "type": "address"
        }
      ],
      "name": "addressToAmountFunded",
      "outputs": [
        {
          "internalType": "uint256",
          "name": "",
          "type": "uint256"
        }
      ],
      "stateMutability": "view",
      "type": "function"
    },
    {
      "inputs": [],
      "name": "fund",
      "outputs": [],
      "stateMutability": "payable",
      "type": "function"
    },
    {
      "inputs": [
        {
          "internalType": "uint256",
          "name": "",
          "type": "uint256"
        }
      ],
      "name": "funders",
      "outputs": [
        {
          "internalType": "address",
          "name": "",
          "type": "address"
        }
      ],
      "stateMutability": "view",
      "type": "function"
    },
    {
      "inputs": [
        {
          "internalType": "uint256",
          "name": "ethAmount",
          "type": "uint256"
        }
      ],
      "name": "getConversion",
      "outputs": [
        {
          "internalType": "uint256",
          "name": "",
          "type": "uint256"
        }
      ],
      "stateMutability": "view",
      "type": "function"
    },
    {
      "inputs": [],
      "name": "getPrice",
      "outputs": [
        {
          "internalType": "uint256",
          "name": "",
          "type": "uint256"
        }
      ],
      "stateMutability": "view",
      "type": "function"
    },
    {
      "inputs": [],
      "name": "owner",
      "outputs": [
        {
          "internalType": "address",
          "name": "",
          "type": "address"
        }
      ],
      "stateMutability": "view",
      "type": "function"
    },
    {
      "inputs": [],
      "name": "priceFeed",
      "outputs": [
        {
          "internalType": "contract AggregatorV3Interface",
          "name": "",
          "type": "address"
        }
      ],
      "stateMutability": "view",
      "type": "function"
    },
    {
      "inputs": [],
      "name": "withdraw",
      "outputs": [],
      "stateMutability": "nonpayable",
      "type": "function"
    },
    {
      "stateMutability": "payable",
      "type": "receive"
    }
  ],
  "transactionHash": "0x26a07c14c4e5ede3a6c0dbcb5528038c46f52cc0927fff9bc9801958b423db05",
  "args": [
    "0x5FbDB2315678afecb367f032d93F642f64180aa3"
  ],
  "numDeployments": 1,
  "solcInputHash": "00c29c788a9037b61bf46ae33491569e",
  "bytecode": "0x60a060405234801561001057600080fd5b50604051611038380380611038833981810160405281019061003291906100c5565b3373ffffffffffffffffffffffffffffffffffffffff1660808173ffffffffffffffffffffffffffffffffffffffff1660601b8152505080600260006101000a81548173ffffffffffffffffffffffffffffffffffffffff021916908373ffffffffffffffffffffffffffffffffffffffff16021790555050610137565b6000815190506100bf81610120565b92915050565b6000602082840312156100d757600080fd5b60006100e5848285016100b0565b91505092915050565b60006100f982610100565b9050919050565b600073ffffffffffffffffffffffffffffffffffffffff82169050919050565b610129816100ee565b811461013457600080fd5b50565b60805160601c610edc61015c6000396000818161035b015261069e0152610edc6000f3fe60806040526004361061008a5760003560e01c8063741bef1a11610059578063741bef1a1461015f5780638da5cb5b1461018a57806398d5fdca146101b5578063b60d4288146101e0578063dc0d3dff146101ea57610099565b8063047abed7146100a35780633ccfd60b146100e05780633e47d6f3146100f75780636b69a5921461013457610099565b3661009957610097610227565b005b6100a1610227565b005b3480156100af57600080fd5b506100ca60048036038101906100c591906108f8565b610322565b6040516100d79190610b4a565b60405180910390f35b3480156100ec57600080fd5b506100f5610359565b005b34801561010357600080fd5b5061011e600480360381019061011991906108cf565b610652565b60405161012b9190610b4a565b60405180910390f35b34801561014057600080fd5b5061014961066a565b6040516101569190610b4a565b60405180910390f35b34801561016b57600080fd5b50610174610676565b6040516101819190610acf565b60405180910390f35b34801561019657600080fd5b5061019f61069c565b6040516101ac9190610ab4565b60405180910390f35b3480156101c157600080fd5b506101ca6106c0565b6040516101d79190610b4a565b60405180910390f35b6101e8610227565b005b3480156101f657600080fd5b50610211600480360381019061020c91906108f8565b610780565b60405161021e9190610ab4565b60405180910390f35b67b469471f8014000061023934610322565b11610279576040517f08c379a000000000000000000000000000000000000000000000000000000000815260040161027090610b2a565b60405180910390fd5b6000339080600181540180825580915050600190039060005260206000200160009091909190916101000a81548173ffffffffffffffffffffffffffffffffffffffff021916908373ffffffffffffffffffffffffffffffffffffffff16021790555034600160003373ffffffffffffffffffffffffffffffffffffffff1673ffffffffffffffffffffffffffffffffffffffff16815260200190815260200160002081905550565b60008061032d6106c0565b905060006402540be40082856103439190610cc9565b61034d9190610b81565b90508092505050919050565b7f000000000000000000000000000000000000000000000000000000000000000073ffffffffffffffffffffffffffffffffffffffff163373ffffffffffffffffffffffffffffffffffffffff16146103e7576040517f08c379a00000000000000000000000000000000000000000000000000000000081526004016103de90610b0a565b60405180910390fd5b60008080548060200260200160405190810160405280929190818152602001828054801561046a57602002820191906000526020600020905b8160009054906101000a900473ffffffffffffffffffffffffffffffffffffffff1673ffffffffffffffffffffffffffffffffffffffff1681526020019060010190808311610420575b5050505050905060005b815181101561051b5760008282815181106104b8577f4e487b7100000000000000000000000000000000000000000000000000000000600052603260045260246000fd5b602002602001015190506000600160008373ffffffffffffffffffffffffffffffffffffffff1673ffffffffffffffffffffffffffffffffffffffff1681526020019081526020016000208190555050808061051390610da3565b915050610474565b50600067ffffffffffffffff81111561055d577f4e487b7100000000000000000000000000000000000000000000000000000000600052604160045260246000fd5b60405190808252806020026020018201604052801561058b5781602001602082028036833780820191505090505b50600090805190602001906105a19291906107bf565b5060003373ffffffffffffffffffffffffffffffffffffffff16476040516105c890610a9f565b60006040518083038185875af1925050503d8060008114610605576040519150601f19603f3d011682016040523d82523d6000602084013e61060a565b606091505b505090508061064e576040517f08c379a000000000000000000000000000000000000000000000000000000000815260040161064590610aea565b60405180910390fd5b5050565b60016020528060005260406000206000915090505481565b67b469471f8014000081565b600260009054906101000a900473ffffffffffffffffffffffffffffffffffffffff1681565b7f000000000000000000000000000000000000000000000000000000000000000081565b600080600260009054906101000a900473ffffffffffffffffffffffffffffffffffffffff1673ffffffffffffffffffffffffffffffffffffffff1663feaf968c6040518163ffffffff1660e01b815260040160a06040518083038186803b15801561072b57600080fd5b505afa15801561073f573d6000803e3d6000fd5b505050506040513d601f19601f820116820180604052508101906107639190610921565b5050509150506402540be4008161077a9190610bb2565b91505090565b6000818154811061079057600080fd5b906000526020600020016000915054906101000a900473ffffffffffffffffffffffffffffffffffffffff1681565b828054828255906000526020600020908101928215610838579160200282015b828111156108375782518260006101000a81548173ffffffffffffffffffffffffffffffffffffffff021916908373ffffffffffffffffffffffffffffffffffffffff160217905550916020019190600101906107df565b5b5090506108459190610849565b5090565b5b8082111561086257600081600090555060010161084a565b5090565b60008135905061087581610e4a565b92915050565b60008151905061088a81610e61565b92915050565b60008135905061089f81610e78565b92915050565b6000815190506108b481610e78565b92915050565b6000815190506108c981610e8f565b92915050565b6000602082840312156108e157600080fd5b60006108ef84828501610866565b91505092915050565b60006020828403121561090a57600080fd5b600061091884828501610890565b91505092915050565b600080600080600060a0868803121561093957600080fd5b6000610947888289016108ba565b95505060206109588882890161087b565b9450506040610969888289016108a5565b935050606061097a888289016108a5565b925050608061098b888289016108ba565b9150509295509295909350565b6109a181610d23565b82525050565b6109b081610d7f565b82525050565b60006109c3601383610b70565b91507f457468205472616e73666572204661696c6564000000000000000000000000006000830152602082019050919050565b6000610a03601d83610b70565b91507f4f6e6c79206f776e65722063616e2077697468647261772066756e64730000006000830152602082019050919050565b6000610a43600f83610b70565b91507f4e6f7420456e6f756767682045746800000000000000000000000000000000006000830152602082019050919050565b6000610a83600083610b65565b9150600082019050919050565b610a9981610d5f565b82525050565b6000610aaa82610a76565b9150819050919050565b6000602082019050610ac96000830184610998565b92915050565b6000602082019050610ae460008301846109a7565b92915050565b60006020820190508181036000830152610b03816109b6565b9050919050565b60006020820190508181036000830152610b23816109f6565b9050919050565b60006020820190508181036000830152610b4381610a36565b9050919050565b6000602082019050610b5f6000830184610a90565b92915050565b600081905092915050565b600082825260208201905092915050565b6000610b8c82610d5f565b9150610b9783610d5f565b925082610ba757610ba6610e1b565b5b828204905092915050565b6000610bbd82610d35565b9150610bc883610d35565b9250827f7fffffffffffffffffffffffffffffffffffffffffffffffffffffffffffffff0482116000841360008413161615610c0757610c06610dec565b5b817f80000000000000000000000000000000000000000000000000000000000000000583126000841260008413161615610c4457610c43610dec565b5b827f80000000000000000000000000000000000000000000000000000000000000000582126000841360008412161615610c8157610c80610dec565b5b827f7fffffffffffffffffffffffffffffffffffffffffffffffffffffffffffffff0582126000841260008412161615610cbe57610cbd610dec565b5b828202905092915050565b6000610cd482610d5f565b9150610cdf83610d5f565b9250817fffffffffffffffffffffffffffffffffffffffffffffffffffffffffffffffff0483118215151615610d1857610d17610dec565b5b828202905092915050565b6000610d2e82610d3f565b9050919050565b6000819050919050565b600073ffffffffffffffffffffffffffffffffffffffff82169050919050565b6000819050919050565b600069ffffffffffffffffffff82169050919050565b6000610d8a82610d91565b9050919050565b6000610d9c82610d3f565b9050919050565b6000610dae82610d5f565b91507fffffffffffffffffffffffffffffffffffffffffffffffffffffffffffffffff821415610de157610de0610dec565b5b600182019050919050565b7f4e487b7100000000000000000000000000000000000000000000000000000000600052601160045260246000fd5b7f4e487b7100000000000000000000000000000000000000000000000000000000600052601260045260246000fd5b610e5381610d23565b8114610e5e57600080fd5b50565b610e6a81610d35565b8114610e7557600080fd5b50565b610e8181610d5f565b8114610e8c57600080fd5b50565b610e9881610d69565b8114610ea357600080fd5b5056fea2646970667358221220aa7b6cfd1753bba4d2186f6cb22ebd338e9a260b1ef9d13d8f7a0fc27be9be4c64736f6c63430008000033",
  "devdoc": {
    "kind": "dev",
    "methods": {},
    "version": 1
  },
  "userdoc": {
    "kind": "user",
    "methods": {},
    "version": 1
  },
  "storageLayout": {
    "storage": [
      {
        "astId": 51,
        "contract": "contracts/CrowdFunding.sol:CrowdFunding",
        "label": "funders",
        "offset": 0,
        "slot": "0",
        "type": "t_array(t_address)dyn_storage"
      },
      {
        "astId": 55,
        "contract": "contracts/CrowdFunding.sol:CrowdFunding",
        "label": "addressToAmountFunded",
        "offset": 0,
        "slot": "1",
        "type": "t_mapping(t_address,t_uint256)"
      },
      {
        "astId": 65,
        "contract": "contracts/CrowdFunding.sol:CrowdFunding",
        "label": "priceFeed",
        "offset": 0,
        "slot": "2",
        "type": "t_contract(AggregatorV3Interface)45"
      }
    ],
    "types": {
      "t_address": {
        "encoding": "inplace",
        "label": "address",
        "numberOfBytes": "20"
      },
      "t_array(t_address)dyn_storage": {
        "base": "t_address",
        "encoding": "dynamic_array",
        "label": "address[]",
        "numberOfBytes": "32"
      },
      "t_contract(AggregatorV3Interface)45": {
        "encoding": "inplace",
        "label": "contract AggregatorV3Interface",
        "numberOfBytes": "20"
      },
      "t_mapping(t_address,t_uint256)": {
        "encoding": "mapping",
        "key": "t_address",
        "label": "mapping(address => uint256)",
        "numberOfBytes": "32",
        "value": "t_uint256"
      },
      "t_uint256": {
        "encoding": "inplace",
        "label": "uint256",
        "numberOfBytes": "32"
      }
    }
  }
}